:100000000C9416020C944E020C944E020C944E0268
:100010000C944E020C944E020C944E020C944E0220
:100020000C944E020C944E020C94141D0C94E81D7A
:100030000C9454170C944E020C944E020C944E02E5
:100040000C944E020C944E020C944E020C944E02F0
:100050000C944E020C94DB170C944E020C944E023E
:100060000C944E020C944E020C944E020C944E02D0
:100070000C944E020C944E020C944E020C944E02C0
:100080000C944E020C944E020C944E020C944E02B0
:100090000C944E020C944E020C944E020C944E02A0
:1000A0000C944E020C944E020C944E022B00140041
:1000B0001A000800150017001C0018000C001200A0
:1000C00013002A002F0004001600070009000A0090
:1000D0000B000D000E000F0033003000E1001D008A
:1000E0001B00060019000500110010003600370043
:1000F0003800E5002800E000E200E30000412C00A9
:1001000000000042E70031003500280035021E02E1
:100110001F022002210222022302240225022602BB
:1001200027022A004C003A003B003C003D003E0004
:100130003F002D022E022F0230023402E100400067
:1001400041004200430044004500340231024A00AD
:100150004D002800E500E000E200000000002C0057
:10016000000000005000510052004F0035001E00FA
:100170001F0020002100220023002400250026006B
:1001800027002A004C003A003B003C003D003E00A6
:100190003F002D002E002F0030003400E100400011
:1001A00041004200430044004500340031004B0050
:1001B0004E002800E500E000E200000000002C00F6
:1001C000000000000000000000000000444542550F
:1001D000473A2064697361626C65642E0A00444585
:1001E0004255473A20656E61626C65642E0A006C68
:1001F00065645F7461736B3A20253032580A004F92
:100200006E6573686F743A206163746976653A202D
:1002100025640A000A002530313662003A200025A4
:10022000303258000A722F63203031323334353681
:100230003738394142434445460A000A00253032E6
:100240005820006E6B726F5F7265706F72743A2027
:1002500025303258207C20000A00253032582000FA
:100260006B6579626F6172645F7265706F72743A08
:100270002025303258207C200064656C5F6B6579E6
:100280005F6269743A2063616E27742064656C3A1A
:1002900020253032580A006164645F6B65795F62C3
:1002A00069743A2063616E2774206164643A202582
:1002B0003032580A0073757370656E64696E67201A
:1002C0006B6579626F6172640D0A005B575D005B5C
:1002D000535D005B525D005B445D005B435D000E5F
:1002E0000350006C0061006E0063006B0000000AA8
:1002F000034F004C004B00420000000403090409B6
:10030000025400030100A0FA0904000001030101E6
:1003100000092111010001224400070581030800A2
:10032000010904010001030000000921110100017D
:10033000226D000705820320000109040200010369
:1003400000000009211101000122150007058303A7
:100350002000011201000200000008A80301AE0302
:1003600000010200010631FF0974A10109751500A1
:1003700026FF00952075088102C005010980A101B2
:10038000850319012AB700150126B70095017510DC
:100390008100C0050C0901A101850419012AA002F0
:1003A000150126A002950175108100C005010906FE
:1003B000A1018506050719E029E715002501950823
:1003C000750181020507190029EF1500250195F037
:1003D000750181020508190129059505750191022C
:1003E000950175039101C005010906A101050719D1
:1003F000E029E71500250195087501810295017531
:100400000881010507190029FF150026FF00950640
:1004100075088100050819012905150025019505B4
:1004200075019102950175039101C00011241FBE51
:10043000CFEFDAE0DEBFCDBF04B603FE18C0809177
:10044000AC029091AD02A091AE02B091AF028730A4
:10045000904BA740B04B59F41092AC021092AD02F1
:100460001092AE021092AF02E0E0F8E3099511E0BD
:10047000A0E0B1E0E0E0F1E402C005900D92A03A06
:10048000B107D9F722E0A0EAB1E001C01D92AC3A71
:10049000B207E1F70E940F130C943F200C94000068
:1004A000FF93EF93E091A001F091A101309709F043
:1004B0000995EF91FF910895FC018591803011F02D
:1004C000EFDFFBCF0895FF27E0E230E247FF0CC0EB
:1004D000419597FF09C0EDE26095709580959095E4
:1004E000611D711D811D911D27FF02C0219530E303
:1004F00050E2AA27660F771F881F991FAA1FA4170B
:1005000010F0A41B63955A95A9F7AA3008F0A95FCB
:10051000A05DAF93F395611571058105910541F7D4
:10052000ED3211F4EF93F395F21718F43F93F3952E
:10053000FBCF8F91B5DFFA95E1F70895E991F99135
:100540008591803021F0853219F0AADFF9CF089526
:1005500020E0E89455915532C1F3503311F468947A
:1005600055915A3348F4505390F3220F022E220F24
:10057000220F200D250FF4CF0EF42195899199912A
:10058000533619F3533729F1533559F1BC018827F4
:100590009927E8945C3621F4899199916894559152
:1005A000543639F446EF7EF077FF0DC08FEF9FEFA2
:1005B0000AC055374AE039F0583540E121F052364B
:1005C00042E009F00895FF93EF937DDFEF91FF91F3
:1005D000B7CFFF93EF93FC0181918030B9F360DFD7
:1005E000FBCFFF93EF9368DFF1CFDF93CF93CDB7CE
:1005F000DEB72596A3DFCF91DF9108956E9A769AA4
:100600000E94781108958330B8F46430A8F44C3017
:1006100098F450E09CE0699F400D511D1124FA01AF
:1006200090E3899FE00DF11D1124EE0FFF1FE455AB
:10063000FF4F85919491089581E090E008950E9484
:100640000303089581E008950E942203089581E044
:1006500008950E94220308950E9429030895089591
:100660000E942F030895A6E0B0E0E9E3F3E00C94C4
:10067000AF1F49835A839E833091A70189819A8154
:1006800031111AC03E81332399F0222389F00E9450
:100690005509182F682F89819A810E943109698133
:1006A0007A81812F0E9476102696E3E00C94CB1F6E
:1006B0000E944309182FF3CF0E94550969817A815E
:1006C000F1CFFC01262F40815181628173818481A9
:1006D00095810E9433030895CF93DF93EC0161E08D
:1006E0000E946103BE010E942403DF91CF9108950F
:1006F000CF93DF93EC0160E00E946103BE010E9492
:100700003003DF91CF91089581E008950E94840322
:100710000895CF93C82F0E9406088C2F0E9486034D
:100720002FEF84E39CE0215080409040E1F700C02F
:100730000000CF91089581E00E9489030E94FF1775
:10074000089580E00E9489030E94231808950F9362
:100750001F93CF93DF938C0161E00E946103EC0152
:10076000B8010E942C03811106C080E0DF91CF9177
:100770001F910F910895B801CE010E94B6148823ED
:10078000A1F3B801CE010E947613882371F3B8015A
:10079000CE010E944C13882341F3F8018581882300
:1007A00069F0C330FCE7DF07A1F160F4C130ECE78A
:1007B000DE0789F1C0F4C115DC4791F0C8010E9441
:1007C0002703D4CFCB35ECE7DE0759F1CC35FCE776
:1007D000DF0721F1CA35DC4789F70E94AF0DEECF64
:1007E0000E949B03C2CF90916C02892F8E7F90FF55
:1007F000816080936C0280FF09C08EED91E09F9331
:100800008F930E94F5020F900F90AFCF8CEC91E088
:10081000F6CF0E94B70D0E94A103A7CF0E94A50D9D
:10082000CDCF0E94B30DCACF0E9430170E94590449
:1008300008950E945D040E9435170895829590E006
:100840009C01220F331F220F331F2C7C9595879517
:10085000959587958373282B30E0C901880F991FE0
:100860008A7A359527952575822B0895CF93DF9346
:10087000D92F0E941E04C82F8D2F0E941E049C2F6A
:10088000DF91CF91089581E008950895CF93DF938C
:10089000D82F0E944304C82F882319F08D2F0E945F
:1008A00045048C2FDF91CF91089508950E9446044E
:1008B000089580E00E94560408950E94FF140E944B
:1008C00056040895CF930E94FF14C82F8091A2016F
:1008D0008C1701F1C093A2010E94C0176093A3017D
:1008E0007093A4018093A5019093A60180916C025E
:1008F0008570853061F41F92CF938FEE91E09F93C6
:100900008F930E94F5020F900F900F900F908C2FF5
:100910000E945604CF910895ADE0B0E0E2E9F4E022
:100920000C94B01F488759876A877B878C879D877F
:1009300091110E94A20C1F8286E0FE013896DE0112
:10094000119601900D928A95E1F78D8181110DC06C
:1009500029813A814B815C816D817E818F810E94EA
:10096000EC0B2D96E2E00C94CC1FCE0101960E9478
:100970006C038111EDCFF5CFFC012481213021F4EE
:10098000808191810E9487090895CF93C82F882381
:10099000C9F08238C9F40E940C1581FD13C089E3A7
:1009A0000E94C6160E94360D2FEF87EE93E021506D
:1009B00080409040E1F700C0000089E30E94DD160E
:1009C0000E94360DCF9108958338A1F40E940C1532
:1009D00080FDF8CF83E50E94C6160E94360D2FEFEA
:1009E00081EE94E0215080409040E1F700C000008B
:1009F00083E5E4CF8438A1F40E940C1582FDE2CF98
:100A000087E40E94C6160E94360D2FEF81EE94E017
:100A1000215080409040E1F700C0000087E4CECF35
:100A20008CEF8C0F813A70F48C2F0E941B16882358
:100A300029F08C2F0E94DD160E94360D8C2F0E940B
:100A4000C616BECF80E28C0F883048F4C77081E0B4
:100A500001C0880FCA95EAF70E94850CB1CFEBE57B
:100A6000EC0FE33040F4F0E0EB5BFE4F808190E070
:100A70000E94AF15A7CFC85ACB3108F0A3CFEC2FF7
:100A8000F0E0EE0FFF1FE15FFE4F808191810E9439
:100A9000D41598CF882309F44DC0823879F40E9488
:100AA0000C1581FF47C089E30E94C6160E94360DCF
:100AB00089E30E94DD160E94360D0895833859F4AB
:100AC0000E940C1580FF36C083E50E94C6160E9466
:100AD000360D83E5EECF843859F40E940C1582FF61
:100AE00029C087E40E94C6160E94360D87E4E1CF34
:100AF0009CEF980F913AE8F290E2980F983050F4FA
:100B0000877091E001C0990F8A95EAF7892F0E94BA
:100B10008B0CD1CF9BE5980F933028F490E080E0C8
:100B20000E94AF150895885A8B3120F490E080E040
:100B30000E94D41508951F93CF93DF93182FEB01D4
:100B40000E94C504209739F4812F0E944A05DF9145
:100B5000CF911F9108958FE99FE00197F1F700C0B1
:100B600000002197EFCF70E060E0893311F460E579
:100B700070E00E949B050895882321F00E94850C57
:100B80000E94360D0895882321F00E948B0C0E944C
:100B9000360D0895B0E0A0E0E0EDF5E00C94A91F5B
:100BA0006C01D62FC72FFC011581068102950F70AD
:100BB0000E947B0CE82E8823F9F0E12E1123E1F04E
:100BC0008C2F807F803461F080E28D0F883008F1B7
:100BD0008C2F807E803221F4D230D8F00023C9F0EF
:100BE00080918A0282FF15C082E00E94660D0E94F9
:100BF0007B0C91E0E82EE926BC2EB2949FE0B9224E
:100C0000FBE0FB15B8F1EB2DF0E0EF5BFF4D0C9432
:100C10009A1FE12CF1CF0C2F0F70C07F11F00295BD
:100C2000007F112399F0002359F080E28D0F883066
:100C300010F0D11107C0802F0E94850C0E94360D44
:100C40008D2F5AC0802F0E94950CF8CF8D2F0E94B7
:100C50004A05002379F080E28D0F883010F0D11121
:100C600004C0802F0E948B0C03C0802F0E949B0C1D
:100C70000E94360DEB2DE850FF0B349720F40E94B4
:100C8000FF140E945604EE2089F00E94770C80FD2C
:100C90000DC0F60115820E94710C0E948F08C601DA
:100CA0000E94D1070E94710C0E949F08CDB7DEB749
:100CB000E9E00C94C51F2C2F2F70F22EC07FC0329C
:100CC00019F0F29480EFF822DD2341F0D130D1F118
:100CD000112309F444C00023F1F0B2CF80918A02BD
:100CE00082FD15C0112359F0FF2029F08F2D0E949D
:100CF000850C0E94360D80E00E94C504BBCF80E0C9
:100D00000E944A05FF2009F4B5CF8F2DABCF1123E8
:100D100069F0011104C08F2D0E94BC05ABCF0130DA
:100D200009F0A8CF8F2D0E94B90CA4CF0111A2CF3A
:100D30008F2D0E94C3058F2D0E94C50C8F2D0E9400
:100D4000A90C98CF112321F0063008F093CFE3CF00
:100D5000053008F08FCF8F2D0E94C3058BCF002365
:100D6000D1F3D93349F43FEF87EE93E0315080401F
:100D70009040E1F700C000008D2F0E944A057ACF15
:100D80008C2F86958695837069F0813009F072CF3B
:100D90008D2F9C2F9370111102C080E090E00E9473
:100DA000D41568CF8D2F9C2F9370111102C080E055
:100DB00090E00E94AF155ECF8C2F8370A1F51111CA
:100DC00059CF4D2F429546954770440F440F2D2F14
:100DD0002F7030E0042E02C0220F331F0A94E2F776
:100DE00090E080E0D4FF09C08FE090E002C0880F5F
:100DF000991F4A95E2F780959095C695C695C37060
:100E0000822B932BC23049F058F4C13019F00E9464
:100E10005F0830CF0E9456082DCF0E9468082ACF65
:100E20000E94530827CF8695112311F08C2F8170D3
:100E3000882309F41FCF4D2F429546954770440FE4
:100E4000440F2D2F2F7030E0042E02C0220F331FCD
:100E50000A94E2F790E080E0D4FF09C08FE090E0D0
:100E600002C0880F991F4A95E2F780959095C69524
:100E7000C695C370822B932BC23049F058F4C13011
:100E800019F00E94CA08F6CE0E94C108F3CE0E9453
:100E9000D308F0CE0E947708EDCECF70112329F051
:100EA0008C2F0E948F088D2F37CF8D2F0E94C30566
:100EB0008C2F0E949F08DECED23F41F160F4D03FDC
:100EC000B9F0D13F81F0112309F443C00111B8CE2C
:100ED0008C2F8F711FC0D33F01F1D43FA1F78091B8
:100EE0008A0282FD24C08C2F8F71112311F312C04E
:100EF000112341F0053008F0BDCE8C2F8F710E9478
:100F0000B108B8CE063008F0B5CEF7CF8C2F8F7170
:100F10001111CFCF0E948F08ADCE112329F08C2F55
:100F20008F710E948308A6CE0E947E08A3CE112353
:100F300031F063E08C2F8F710E94480D9BCE81E0D1
:100F40000E94660D023008F495CE82E00E94660D84
:100F500091CE002359F0D93309F00ECFEFEFF7EE21
:100F600023E0E150F0402040E1F704CF8C2F8F7157
:100F7000A0CF0F931F93CF93DF93EC01688179810A
:100F80008D810E9492098C010E94DC080E94520807
:100F9000B801CE010E94CA05DF91CF911F910F9138
:100FA0000895CF93DF93EC018C81882399F0CE01D3
:100FB0000E94A703811111C00E947B0C882351F06D
:100FC0008D81882339F080918A0282FF03C082E0FC
:100FD0000E94660DDF91CF910895CE010E94B9075E
:100FE000CE010E947803F6CF90E080E00E94AF151A
:100FF00090E080E00E94D4150E94A20C0E94360D61
:1010000008950E94F4160E94F40708950E94920C1D
:101010000E940108089592959F70963091F058F4BF
:10102000925F9F70923058F4803F19F030F4883E00
:1010300030F481E008959A5FF4CF843FD1F380E0EB
:101040000895883EB0F3813FD1F7F3CFFC012481AE
:10105000222339F0808191810E9487090E940B0828
:10106000089580E00895A6E0B0E0E9E3F8E00C948C
:10107000B01F2696E2E00C94CC1FA7E0B0E0E3E4BA
:10108000F8E00C94B01F2796E2E00C94CC1F089572
:101090000E94470808950E9448089093C3018093D6
:1010A000C201089508950E944B0808952091C2013D
:1010B0003091C301822B932B0E944B0808952091FD
:1010C000C2013091C301822393230E944B080895EB
:1010D0002091C2013091C301822793270E944B08BF
:1010E00008950E94470808950E94710808950E947B
:1010F00074089093C1018093C001089590E080E04E
:101100000E947708089521E030E0A90102C0440F51
:10111000551F8A95E2F7CA010E947708089521E0D9
:1011200030E002C0220F331F8A95E2F78091C001A0
:101130009091C101822B932B0E947708089521E0A2
:1011400030E002C0220F331F8A95E2F720953095D8
:101150008091C0019091C101822393230E9477085E
:10116000089521E030E002C0220F331F8A95E2F794
:101170008091C0019091C101822793270E94770836
:1011800008952091C0013091C101822B932B0E94C0
:10119000770808952091C0013091C10182239323E3
:1011A0000E94770808952091C0013091C1018227E3
:1011B00093270E94770808950895262F277091E0BD
:1011C00001C0990F2A95EAF723E0769567952A954D
:1011D000E1F7660F771F660F771FFA01E60FF71F1B
:1011E00050E040E0682F70E08191DF0111979B0192
:1011F000042E02C0369527950A94E2F721702195B6
:101200002827292328272C934F5F5F4F443051050F
:1012100059F70895A82FA77023E0969587952A95EA
:10122000E1F7880F991F880F991FFB01E80FF91F3D
:1012300050E040E080E0219130E00A2E02C0369577
:1012400027950A94E2F721703327042E01C0220F5C
:101250000A94EAF7822B4F5F5F4F4430510559F7EC
:101260000895262F943070F48C3060F4682F70E06D
:101270008CE0989F600D711D112448EA51E0822F87
:101280000E94DD080895292F943068F48C3058F4BA
:1012900090E068EA71E03CE0239F800D911D1124ED
:1012A0000E940A09089580E00895B0E0A0E0EBE50F
:1012B000F9E00C94A91F7C010091C0011091C101BB
:1012C0008091C2019091C301082B192BCFE0D0E08F
:1012D000CC24C394D12CBC2EC6010C2E02C0880F86
:1012E000991F0A94E2F780239123892B49F42197CF
:1012F00090F7B12C8B2DCDB7DEB7E9E00C94C51F6C
:10130000B7018C2F0E948210019789F3F3CFCF93FE
:10131000DF93EC010E945509BE010E948210DF910B
:10132000CF9108951F93CF93DF93EB019091A70185
:10133000992339F0CB010E948709DF91CF911F914A
:101340000895882369F0CB010E945509182F682F52
:10135000CE010E943109BE01812F0E948210EDCF83
:10136000CB010E944309182FF6CF1F93CF93DF9331
:10137000C091C40117E08091C5018C1304C0DF91B6
:10138000CF911F910895D0E01C9FF0011D9FF00D9B
:101390001124EA53FE4F20813181428153816481BF
:1013A000758186810E943D082196C770E4CF209107
:1013B000FE013091FF0140910002509101026091C5
:1013C000020270910302809104020E943D08089578
:1013D000CF93DF9380910402807F09F04DC080910C
:1013E0000302882309F448C0E091C4015091C5016B
:1013F000C091FF01D091FE01609100027091010245
:1014000047E05E17C9F18E2F90E0E49FF0011124B0
:10141000EA53FE4F2481222391F1489FF001499F16
:10142000F00D1124DF01AA53BE4F11962C91119794
:101430002C1325C02C912D1322C015962C91159795
:1014400021111DC012962D913C91261B370B283C73
:101450003105A8F4809104028F70806180930402AA
:10146000E453FE4F80818F70806180838EEF91E026
:101470000E94D1070E94B509DF91CF910895FC0128
:101480003196E770BECF482F2091C4019091C501DD
:1014900057E0291302C080E0089530E0529FF00128
:1014A000539FF00D1124EA53FE4F8181681306C04B
:1014B0008081481303C085818111EECF2F5F3F4F9C
:1014C0002770E7CFA4E1B0E0E8E6FAE00C94A61FAD
:1014D0008C0186E0F801DE011F9601900D928A953D
:1014E000E1F7F8018481E5809EEFA92E91E0B92E05
:1014F0009091020291111FC08823D1F0EE20A9F033
:10150000C8010E942608F82E882379F087E0F801A8
:10151000D50101900D928A95E1F7C5010E94BC04A6
:101520000E94E8090E94D7095FC0C8010E94D10744
:10153000FF24F39459C0C080D18082809380F090C2
:1015400003022091000230910102A401421B530BBF
:10155000FF2009F4F9C0483C510508F0A7C08823D2
:1015600009F442C09091FF0180910402282F207F4E
:1015700009F05CC09D1116C09091FE01C91212C005
:10158000E1104EC08F708061809304020E94D709E1
:101590008EEF91E00E94D10780910402F8018683CA
:1015A000F12C22C0E1103CC06D2D8C2D0E94430A0D
:1015B0006D2D8C2D0E94430AE82E8111F1CFCF862C
:1015C000D88A8F8598890E948709292F22952F70A4
:1015D000243078F49F702230A8F09923B9F0F801F4
:1015E0009681907F99F4FE2C8F2D6496ECE00C94FC
:1015F000C21F2A5F2F70223068F0C8010E94D107F5
:10160000EF2CF1CF992311F0882369F3805E8830A5
:1016100050F3F3CF803F38F3815F833070F7E3CF2F
:1016200080910402816080930402BACF9D1113C09F
:101630009091FE01C9120FC0E1100DC08683C80150
:101640000E94D10787E0F801AEEFB1E001900D9262
:101650008A95E1F767CFC8010E942608882309F41C
:1016600064CFEE2009F461CF80910402803288F0CB
:101670002091FE013091FF01398728879B868A8659
:10168000909102029C871D868E87CE0108960E944B
:10169000D10787E0F801AEEFB1E001900D928A9595
:1016A000E1F70E94E8090E94D70942CF9091040215
:1016B000292F207FA1F4682D9A8A898AA6017A8928
:1016C0009E2D0E9433088EEF91E00E94D10787E0A3
:1016D000F50111928A95E9F70E94D70961CF882315
:1016E00009F482CF8091FF018D1110C08091FE011D
:1016F000C8120CC0E1100AC09683C8010E94D1072D
:1017000087E0F50111928A95E9F76ECFC8010E9432
:101710002608882309F409CFEE2009F406CF80912A
:101720000402803208F4B5CF2091FE013091FF0110
:101730003A8329839C828B82909102029D831E8230
:101740008F83CE010196A3CF483C5105B8F588237D
:1017500009F4EECEFE2CEE2009F4E7CE8091FF01D5
:101760008D111EC08091FE01C8121AC08091040222
:1017700080FD0DC0982F907F51F08683903F09F433
:101780005ECF982F907F905F8F70892B57CF87E027
:10179000F801AEEFB1E001900D928A95E1F724CF08
:1017A000C8010E942608811174CF809104028160D3
:1017B00080930402C8010E94D10716CF682D9A8A2F
:1017C000898AA6017A899E2D0E94330887E0F50157
:1017D00011928A95E9F7A6CEAEE0B0E0E2EFFBE029
:1017E0000C94AF1F288739874A875B876C877D8772
:1017F0008E87CE0108960E94620A8823B1F06C851C
:10180000662341F0288539854A855B857D858E85EF
:101810000E943D0817E08091C4019091C501891391
:101820003DC02E96E3E00C94CB1F87E0FE01389676
:10183000DE01119601900D928A95E1F78C8588233F
:1018400049F32091C50130E0C901019687709927BD
:101850004091C4014817190699F097E0929FD00172
:10186000939FB00D1124AA53BE4FFE0131960190F3
:101870000D929A95E1F78093C5010E94B509CACFF0
:101880000E9406081092C5011092C40187E0EEEF95
:10189000F1E0DF011D928A95E9F7BCCF819FC0017D
:1018A00011248A539E4F0E94620A882309F4B9CFFB
:1018B000E091C4011E9FF0011124EA53FE4F2081E4
:1018C0003181428153816481758186810E943D0806
:1018D0008091C40190E00196877099278093C4019C
:1018E0009ACF80912D028695869586950895809150
:1018F0002D028770089590912D02977081E009F470
:1019000080E0089580915902089590915902892BA1
:10191000809359020895809590915902982390934D
:101920005902089510925902089590915802892BF6
:10193000809358020895809590915802982390932F
:101940005802089510925802089508950E94A50C17
:10195000089590912E02292F282331F08095892314
:1019600080932E020E94A60C089508950E94B50C43
:10197000089590912F02292F2823281729F0982BBA
:1019800090932F020E94B60C089590912F02292F58
:10199000282331F08095892380932F020E94B60C72
:1019A000089580912F02882329F010922F0280E061
:1019B0000E94B60C0895CF93C091590280915802AD
:1019C000C82B80912F02882331F0C82B0E94F91573
:1019D00081110E94D10C8C2FCF910895CF93DF936A
:1019E000C0910201D09103010E94DB0C8883C09159
:1019F0000201D091030148E050E065E272E0CE01BF
:101A00000E94D71F892B59F088E0FE01A5E2B2E0C1
:101A100001900D928A95E1F7CE010E940F15DF919A
:101A2000CF910895CF93DF93C0910001D091010130
:101A30000E94DB0C8983C0910001D091010140E23A
:101A400050E065E072E0CE010E94D71F892B59F06B
:101A500080E2FE01A5E0B2E001900D928A95E1F7E7
:101A6000CE010E945D15DF91CF91089580910E0106
:101A7000882339F08091890287FF03C00E94120DEC
:101A800008950E94EE0C089508950E94440D089553
:101A900090918A0292FF11C098E0899F90011124D1
:101AA000622B60932D020E948F0880912D028695F3
:101AB000869586950E94450D08950E948F08089589
:101AC00010922D0280E00E94450D089590912D0204
:101AD0008095892380932D02282F277069F4891718
:101AE00059F090918A0292FF07C086958695869557
:101AF0000E949F080E94600D0895CF93C82F809187
:101B00008A0282FB992790F99C17E9F0C0FB82F9C1
:101B100080938A028091890290918A020E94D80D56
:101B200082E00E94660D80916C0280FF0CC01F92C3
:101B3000CF938FEF91E09F938F930E94F5020F90C8
:101B40000F900F900F90CF91089580918A0282FBA1
:101B5000882780F991E089270E947D0D089581E012
:101B60000E947D0D089580E00E947D0D08956FEF25
:101B70007FEF90E080E00E942920089590E080E0CF
:101B80000E94F51F21E0853E9E4F09F020E0822F44
:101B9000089582E090E00E94ED1F089583E090E0B8
:101BA0000E94ED1F089584E090E00E94F51F0895C3
:101BB000BC0184E090E00E9429200895AB01BC01A3
:101BC0008FE090E00E941D200895AB01BC0183E1ED
:101BD00090E00E941D20089560E070E0CB010E941B
:101BE000E50D089560E070E0CB010E94DE0D0E94DB
:101BF000EC0D0895A8E0B0E0E0E0FEE00C94B01F2A
:101C000065EE7EEF90E080E00E94292060E082E0B7
:101C100090E00E940B2081E090E09093C3018093BC
:101C2000C20161E083E090E00E940B2060E074E17B
:101C300084E090E00E94292060E086E090E00E942D
:101C40000B2060E087E090E00E940B2040E050E035
:101C5000BA0188E090E00E941D2060E083E290E0FD
:101C60000E940B2060E08CE090E00E940B2060E07E
:101C70008DE090E00E940B2019821A821B821C8248
:101C80001D821E821F82188648E050E067E170E0E6
:101C9000CE0101960E94FB1F40E050E0BA018FE1A7
:101CA00090E00E941D200E94F20D2896E2E00C9424
:101CB000CC1F0E94FA0D0895682F8EE090E00E94DC
:101CC0000B200895A6E0B0E0E8E6FEE00C94AE1F1D
:101CD0000E94B4178C0180915A0290915B02801788
:101CE000910781F019821A820E94B417682F4981E6
:101CF0005A81792F80E090E00E948C0410935B025F
:101D000000935A022696E4E00C94CA1F0E94C01762
:101D1000609368027093690280936A0290936B02E9
:101D200060936402709365028093660290936702E9
:101D30000895089508950E94990E089508950E94A7
:101D40009E0E08958EED99E10E9426130E949A0E30
:101D50000E949B0E089581E008950E94AB0E0895A5
:101D60000E94AB0E0895089508950E94B30E0E943C
:101D7000B40E08950E94BE0D811102C00E94590E3A
:101D80000E94C90D80936C020E94D30D90938A0229
:101D9000809389020E9449130E94CE0D90E00E9418
:101DA00053088091C0019091C1010E947408089568
:101DB0000E94AB170E947F120E94BA0E0E94550427
:101DC0000E949F0E0895A6E0B0E0E9EEFEE00C94BC
:101DD000A41F0E94AD0E811108C00E94620E0E94D5
:101DE00062042696EEE00C94C01F0E9495122CE52A
:101DF000822E22E0922E640110E0F601E190F19033
:101E00006F01812F0E947D111F5F143009F44BC0B8
:101E1000E816F90691F380916C0281FD0E9486110B
:101E20000E94B00E782E10E066246394812F0E94E9
:101E30007D117C01F401A190B1904F018A159B05A1
:101E400061F100E0CC24C394D12CAE24BF24C501A1
:101E50008C219D21892BC1F07720B1F009831A8351
:101E60000E94B4179C838B836D8221E0C7018C2173
:101E70009D21892B09F420E049815A816B817C8165
:101E80008D81922F0E948C040F5FCC0CDD1C0C30D6
:101E9000F1F6F4013297F182E0821F5F143031F6DF
:101EA0000E94860E9CCFE816F90609F0B4CF95CFB4
:101EB0001F93CF93DF930E948710EC01C11580E53B
:101EC000D807F0F5C11580E4D80708F09CC0C03EE3
:101ED000D10520F5CD3CD10508F082C0C83AD10526
:101EE00078F4C53AD10508F073C0C130D10519F1B5
:101EF000209709F1C430D105F0F4D0E0C0E01BC058
:101F0000C33CD105D0F7C85AD0E0CC0FDD1FC85B69
:101F1000DE4F0990D881C02DD4640DC0C11580E278
:101F2000D80708F0D1C0C11581E0D80708F05AC021
:101F3000C83ED10510F7CE01DF91CF911F910895D2
:101F4000C03682E5D80718F5C03482E5D80708F016
:101F50006BC0C03282E5D80708F05FC0C11582E5CA
:101F6000D80708F497C02C2F2695269580E2289F45
:101F7000900111248C2F8370C1E0D0E002C0CC0FFF
:101F8000DD1F8A95E2F7C22BD32BDD68D4CFC03A90
:101F900082E5D80760F4C03882E5D80708F459C054
:101FA000CF71D0E0DC2FCC27C46FD06AC4CFC03C47
:101FB00082E5D80708F462C0C03E82E5D80708F081
:101FC0009CCFDC2FCC27CC27DF71C06FD06AB3CF7A
:101FD000C55AD0E0C258DE4FC881D0E0D064ABCF44
:101FE000D065A9CF8D2F0E942911182FCE019927D6
:101FF0000E948710C12FD0E0DC2FCC27CC27DF71C7
:10200000C82BD92B98CFCE0199270E948710CC27B7
:10201000DF70C82BD92BD06A8ECFCF71D0E0DC2FE8
:10202000CC27C16FD06A87CF2C2F26952695277095
:1020300080E2289F900111248C2F8370C1E0D0E0B2
:1020400002C0CC0FDD1F8A95E2F7C22BD32BDC68D0
:1020500072CF2C2F26952695277080E2289F90011D
:1020600011248C2F8370C1E0D0E002C0CC0FDD1FA3
:102070008A95E2F7C22BD32BDA685DCF8C2F8F7154
:102080000E942911C82FD0E0DC2FCC27CC27DF718C
:10209000D06251CF8C2F8F710E94291155E0D695B7
:1020A000C7955A95E1F7CF70D0E0DC2FCC27282FC9
:1020B00030E084FF05C044E0220F331F4A95E1F76A
:1020C000C22BD32BD06937CF8D2F8F710E9429114E
:1020D000182FCE0199270E948710C12FD0E0DC2F46
:1020E000CC27CC27DF71C82BD92BD2CF462F743009
:1020F00030F46C3020F4672F0E941F03089590E0A5
:1021000080E008950E9476100E94580F089582384A
:102110009105B9F1B0F48133910509F47DC048F41B
:102120008932910509F46DC08A32910509F47BC0AA
:1021300008958533910509F45FC08933910509F14C
:102140000895833E9105D9F138F4803E910529F137
:10215000823E910579F10895863E9105D9F1873E39
:10216000910509F43EC0843E910541F520918A0213
:1021700021FF24C08091890284FD19C087EE90E080
:10218000089520918902237009F05AC020918A0293
:1021900023FF14C089E290E008952091890220FD78
:1021A00038C030918A0230FF09C024FF43C090E05C
:1021B00080E008952091890222FDF7CF08952091B3
:1021C000890222FD3AC030918A0230FD39C024FFD5
:1021D000F5CFEDCF2091890223FFF0CF24FDE7CF8B
:1021E000CDCF2091890223FD2EC030918A0231FF8C
:1021F000EECF84EE90E008952091890225FFDECF96
:10220000C9CF2091890225FD21C020918A0223FF98
:10221000D5CF89E390E0D2CF2091890226FFCECF9F
:102220008AE290E008952091890226FFC7CF81E3DA
:1022300090E0089583EE90E0089582EE90E0089596
:1022400080EE90E0089586EE90E0089585E390E0BA
:1022500008959091890292FF10C041E0282F2471C7
:10226000243009F040E031E0282F2871283009F0AF
:1022700030E0431711F02CE0822793FF10C041E0BB
:10228000282F2471243109F040E031E0282F2871F3
:10229000283109F030E0431711F02CE0822730910B
:1022A0008A0230FF10C051E0282F2171213009F03F
:1022B00050E041E0282F2871283009F040E0541701
:1022C00011F029E0822731FF10C041E0282F217151
:1022D000213109F040E031E0282F2871283109F040
:1022E00030E0431711F029E0822794FD877E08959E
:1022F000089508950E9479110895E82FF0E0EE0FF7
:10230000FF1FED56FD4F808191810895B0E0A0E060
:10231000ECE8F1E10C94A61F84E292E09F938F9386
:102320000E94F50283E9E82E82E0F82E0F900F90CC
:10233000912C812C9FE1A92E92E0B92E2CE1C22E86
:1023400022E0D22E06E112E0C4E1D2E09F928F9209
:10235000BF92AF920E94F502DF92CF920E94F502E7
:10236000F701819191917F010E9436049F938F9391
:102370001F930F930E94F502DF93CF930E94F50203
:102380009FEF891A990AEDB7FEB73C960FB6F894FD
:10239000FEBF0FBEEDBFF4E08F169104B9F6CDB7C6
:1023A000DEB7ECE00C94C21F80EA8A95F1F708953D
:1023B00000C008950E94D4110895F894E82FE29582
:1023C000EF70F0E031A1282F2F7081E090E001C084
:1023D000880F2A95EAF7982F9095932391A392A1BD
:1023E000892B82A378940895CF93DF9380E90E948C
:1023F000DD1185E90E94DD1185E30E94DD1186E390
:102400000E94DD11C1E8D1E089918F3F11F00E9457
:10241000DD1181E0CD38D807B9F7DF91CF9108956C
:10242000AF92BF92DF92EF92FF920F931F93CF93E1
:10243000DF938C01D62EC62FD0E0CE0183579E4F5E
:102440007C01FC0120812F3F09F44CC0F894E22F5D
:10245000E295EF70F0E031A12F7081E090E001C0D3
:10246000880F2A95EAF7932F982B91A392A1809534
:10247000892382A378940E94D811E1E8F1E041E039
:1024800050E0B12CA12C21912F3FB1F1A22FA295A8
:10249000AF70B0E090968C9190E02F7002C095954F
:1024A00087952A95E2F780FD27C0CA01A82AB92A94
:1024B000440F551F81E0ED38F80729F7F7018081B7
:1024C0008F3F11F00E94DD1161E0A114B10409F405
:1024D00060E08D2D0E94DA11CC0FDD1FC00FD11FDF
:1024E000B982A882DF91CF911F910F91FF90EF9059
:1024F000DF90BF90AF90089590E080E0D7CF0E942A
:10250000F41188E0E3E9F2E0DF01982F1D929A953B
:10251000E9F7EBE8F2E0DF011D928A95E9F784E044
:102520000E94D0120E94FE020895A8E0B0E0EBE9FC
:10253000F2E10C94AD1F8E010F5F1F4F88E0F80190
:1025400011928A95E9F7F12C6F2DC8010E941012A3
:10255000F394F4E0FF12F8CF48E050E0B8018BE8C4
:1025600092E00E94D71F21E0009709F420E0892B18
:1025700041F088E0F801ABE8B2E001900D928A9555
:10258000E1F744E063E972E08BE892E00E94D11247
:10259000182F0E947A11812F2896E5E00C94C91F0C
:1025A0000895B0E0A0E0E7EDF2E10C94AA1F6C0101
:1025B0007B01042FC22F222379F081E080936F02E8
:1025C0000E94B41790936E0280936D0280E0CDB7A5
:1025D000DEB7E8E00C94C61FD0916F02DD23B1F3A3
:1025E00080916D0290916E020E94CC17059770F356
:1025F00010E0000F111FA801B601C7010E94D71FEC
:10260000892B31F0A801B601C7010E94E41FCD2F2C
:1026100010926F028C2FDBCF0E94E30E08950E9470
:102620004D170E94401A0E94A20E0E945A1A0E9440
:10263000D80E0E94671A0E946C1A0E940C130E9406
:10264000921A0E9478180E94B50EF5CF9093A101BE
:102650008093A00108950E94B70D089580E00E9424
:102660007D11817008950E9495122FEF86E791E009
:10267000215080409040E1F700C000000E94951278
:102680000E942E13882321F00E942B130E94FF1713
:1026900008950E9433130895CF93DF93EB018631A1
:1026A0009C4711F50E94820C9D81992399F08A7AAA
:1026B00091E009F490E090937002811109C089E2E1
:1026C0000E94C6160E94360D80E0DF91CF910895DA
:1026D00085E3F6CF80917002811104C089E20E94E7
:1026E000DD16F0CF85E3FBCF81E0EFCFCF93DF9313
:1026F000EC01FB018581882309F4D2C09E0130578B
:102700002332310508F0B2C00E94D30D90938A02A3
:1027100080938902FE01E150F047E232F10520F496
:10272000E35BFF4D0C949A1F809189028160809336
:10273000890293C080918A02886080938A028DC04A
:10274000809189028260F3CF809189028460EFCF0B
:10275000809189028860EBCF80918A028160EDCF01
:1027600080918A028260E9CF809189028061DFCF07
:10277000809189028062DBCF809189028064D7CF0B
:102780000E940608809189028068D1CF80918902D9
:102790008C60CDCF80918A028360CFCF80918902F7
:1027A0008E7FC5CF80918A02877FC7CF80918902B3
:1027B0008D7FBDCF809189028B7FB9CF80918902B7
:1027C000877FB5CF80918A028E7FB7CF80918A02B2
:1027D0008D7FB3CF809189028F7EA9CF80918902AE
:1027E0008F7DA5CF809189028F7BA1CF0E940608A3
:1027F000809189028F779BCF80918902837F97CFC9
:1028000080918A028C7F99CF8091890282FB9927DF
:1028100090F921E0922790FB82F990FB83F987CF12
:1028200080918A02982F909591708E7F892B90FBD2
:1028300081F983CF90918902892F8F7B96FF8064E5
:1028400076CF0E94060890918902892F97FB87F91D
:1028500080586DCF81E00E945C0E8091890290913A
:102860008A020E94D80D0E94060880E0DF91CF9175
:10287000089580E0F0CF90918902892F8F7E94FF98
:10288000806155CF90918902892F8E7F90FF816062
:102890004ECF90918A02892F877F93FF88604DCF1A
:1028A00081E0E4CF0F931F93CF93DF93C42FD22FF8
:1028B000FC0185818823C9F0409373020E94B417FC
:1028C000909372028093710280E28C0F883040F402
:1028D000C77081E001C0880FCA95EAF70E94BC0565
:1028E000DF91CF911F910F910895109173021413EE
:1028F00032C080917102909172020E94CC17883C84
:10290000910548F5C0E2CD0F1D17B9F080E2810FA7
:10291000883040F4177081E001C0880F1A95EAF7FB
:102920000E94C305C83048F481E09D2F977001C014
:10293000880F9A95EAF70E94BC05802F0E94B30584
:10294000C83070F6D77081E001C0880FDA95EAF7D9
:102950000E94C305C5CF80E28C0F883008F6C7708F
:1029600081E001C0880FCA95EAF7F2CF0F93DB012F
:1029700088519C4787309105A0F5FC01E159FF4D36
:102980000C949A1F06E221EE41EE6AE17CE7CD014C
:102990000E94521480E00F91089507E225EE45EE63
:1029A0006BE17CE7F4CF06E221EE40EE68E17CE7E4
:1029B000EECF07E225EE44EE69E17CE7E8CF06E2E0
:1029C00021EE42EE6CE17CE7E2CF07E225EE46EE37
:1029D0006DE17CE7DCCF08E221E045EE6EE17CE7CB
:1029E000D6CF15968C91882319F010927302D3CF0D
:1029F00081E0D1CF90937902809378020895E0919D
:102A00007802F0917902309729F00190F081E02D61
:102A10000995089580E008950E94FF140895EF92AB
:102A2000FF920F931F93CF93DF93EC01E091780215
:102A3000F09179023097E1F10280F381E02D099560
:102A400080916C0282FF34C080FF0DC088811F928C
:102A50008F9380E692E09F938F930E94F5020F90F0
:102A60000F900F900F907E0186E0E80EF11C0AE5B2
:102A700012E080916C0280FF0BC08A811F928F93BD
:102A80001F930F930E94F5020F900F900F900F90DD
:102A90002196CE15DF0569F780916C0280FF08C092
:102AA00088E592E09F938F930E94F5020F900F901C
:102AB000CDB7DEB7E6E00C94C81FEF92FF920F93FC
:102AC0001F93CF93DF93EC01E0917802F0917902AC
:102AD000309709F43FC086E088830480F581E02DBB
:102AE000CE01099580916C0282FF34C080FF0DC039
:102AF00089811F928F9383E492E09F938F930E942A
:102B0000F5020F900F900F900F907E018EE1E80E6E
:102B1000F11C0DE312E080916C0280FF0BC08A81F2
:102B20001F928F931F930F930E94F5020F900F90A7
:102B30000F900F902196CE15DF0569F780916C02FA
:102B400080FF08C08BE392E09F938F930E94F50271
:102B50000F900F90CDB7DEB7E6E00C94C81FA3E04E
:102B6000B0E0E5EBF5E10C94B01F209176023091D6
:102B7000770228173907A1F09093770280937602A5
:102B8000E0917802F0917902309751F023E02983A7
:102B90009B838A830084F185E02DCE0101960995FF
:102BA0002396E2E00C94CC1FA3E0B0E0EAEDF5E15F
:102BB0000C94B01F209174023091750228173907C8
:102BC000A1F09093750280937402E0917802F091E5
:102BD0007902309751F024E029839B838A83008413
:102BE000F185E02DCE01019609952396E2E00C9443
:102BF000CC1F20910201309103012E5F3F4F809145
:102C00000E01882379F08091890287FF0BC0209103
:102C10000001309101012E5F3F4F9EE180E0915015
:102C200018F4089596E0FACFF90141919F014423E9
:102C3000B1F38F5FF4CF882321F190910E01992396
:102C400011F19091890297FF1EC0E82FE695E69555
:102C5000E695EE31B0F42091000130910101E20FD0
:102C6000F32FF11D228130E0877041E050E002C077
:102C7000440F551F8A95E2F72423352381E0232B47
:102C800091F480E008952091020130910301F9014F
:102C90003296285F3F4F9191981721F0E217F30782
:102CA000D1F7EFCF81E008959C01FC0132969FEFB0
:102CB00080E04191461751F09F3F19F4411101C046
:102CC000982F8F5F8630A9F79F3F09F40895290F49
:102CD000311D97FD3A95F90162830895FC01329602
:102CE00008962191261303C0DF0111971C92E81763
:102CF000F907B9F70895E62FE695E695E695EE31E2
:102D000070F4E80FF92FF11D677021E030E001C089
:102D1000220F6A95EAF78281822B8283089580913F
:102D20006C0280FF0CC01F926F9387E992E09F9323
:102D30008F930E94F5020F900F900F900F900895BF
:102D4000E62FE695E695E695EE3178F4E80FF92F53
:102D5000F11D677021E030E001C0220F6A95EAF7AB
:102D60002095828128232283089580916C0280FF20
:102D70000CC01F926F9389E792E09F938F930E94FC
:102D8000F5020F900F900F900F900895682F80918B
:102D90000E01882359F08091890287FF07C0809136
:102DA0000001909101010E947B160895809102011B
:102DB000909103010E9454160895682F80910E018E
:102DC000882359F08091890287FF07C08091000114
:102DD000909101010E94A0160895809102019091A6
:102DE00003010E946E16089580910E01882379F0E8
:102DF0008091890287FF0BC0E0910001F0910101F1
:102E000032968EE1DF011D928A95E9F70895E091EF
:102E10000201F0910301329686E0F4CF08950E94FA
:102E20000E170895811106C081E080937A020E94F6
:102E30000F17089582E0F9CF83E080937A020E9411
:102E40000F1708950E941217089581E080937A0267
:102E50000E940F1708950E94251708950895089558
:102E60000E942F170895089508950E942E1708951F
:102E7000CF930E9433170E9495120E943417C0E02E
:102E80008C2F0E947D11892B31F4CF5FC430C1F7A4
:102E900080E0CF91089581E0FCCF85B7806885BF41
:102EA00085B7806885BF08951F921FB61F921124B1
:102EB0008F939F93AF93BF9380917B02811113C037
:102EC00080919B0290919C02A0919D02B0919E02E4
:102ED0004196A11DB11D80939B0290939C02A093EB
:102EE0009D02B0939E02BF91AF919F918F911F90D1
:102EF0001FBE1F9018958091A302843031F10E946B
:102F0000140410927B0288E190E020E40FB6F8945C
:102F1000A895809360000FBE2093600083B7817FE7
:102F2000846083BF83B7816083BF7894889583B7BB
:102F30008E7F83BF0FB6F894A8958091600088615A
:102F400080936000109260000FBE08950E940608F2
:102F50000E941904089582E084BD93E095BD9AEF24
:102F600097BD80936E0008952FB7F89480919B02CF
:102F700090919C02A0919D02B0919E022FBF089556
:102F80002FB7F89460919B0270919C0280919D02F2
:102F900090919E022FBF08959C014FB7F8948091A5
:102FA0009B0290919C02A0919D02B0919E024FBF06
:102FB000821B930B089578941F921FB61F921124C1
:102FC0008F939F93AF93BF9380919B0290919C02AC
:102FD000A0919D02B0919E020196A11DB11D80930A
:102FE0009B0290939C02A0939D02B0939E02BF917E
:102FF000AF919F918F911F901FBE1F90189581E0F8
:103000008093E00080E28093D8001092C9008FE1A5
:103010009EE40197F1F700C0000087E090EBDC012F
:103020008093AC029093AD02A093AE02B093AF0236
:1030300088E19CE00FB6F894A895809360000FBEDD
:1030400090936000FFCF88E19CE00FB6F894A895BC
:10305000809360000FBE90936000FFCF8091870245
:10306000089508959B01BA019091A3029430E9F468
:103070008F708093E9009FEF8091E800915085FD6B
:1030800006C085ED8A95F1F700009111F5CF80918A
:10309000E80085FF0AC050E040E0C9010E94081B1B
:1030A0008091E8008E778093E800089543E050E037
:1030B000BC0182E00E943218089540E250E0BC0159
:1030C00082E00E9432180895CF93DF93EC0148E02C
:1030D00050E0BC0181E00E94321888E0FE01AFE7B9
:1030E000B2E001900D928A95E1F7DF91CF910895BA
:1030F00008958BED92E09F938F930E94F50280914B
:10310000A2020F900F90811109C00E94981C0E948A
:10311000F51C8091E20084608093E200089587EDC1
:1031200092E09F938F930E94F5021092A2020F905B
:103130000F90089583ED92E09F938F930E94F50284
:103140000E9425170F900F9008958FEC92E09F93A7
:103150008F930E94F50260919F0281E0611101C08E
:1031600080E00E941C170F900F9008958BEC92E066
:103170009F938F930E94F5029091A30281E0943077
:1031800009F080E060919F020E9422170F900F903B
:10319000089520917D022F5F822F62E30E948E1F8F
:1031A000992319F020937D02089510927D02809159
:1031B0007E028823F1F08091A3028430C1F49091C3
:1031C000E9009F702091EC00822F817020FD80E843
:1031D000892B93E09093E9009091EB0090FF04C05D
:1031E0009091EE0097FD08C08F708093E9001092D7
:1031F0007E0208951092F1009091E80095FDFACFBB
:103200009091E80090FFF0CF9091E8009E77909326
:10321000E800EACF42E061EC81E00E94141C42E247
:1032200061EC82E00E94141C42E261EC83E00E94A7
:10323000141C9091A30281E0943009F080E0609129
:103240009F020E94121708958091A502833009F40D
:1032500061C030F48130D1F1823009F49EC008950C
:103260008A3009F48AC08B3009F46FC0893009F0C4
:1032700050C08091A402813209F04BC08091A80215
:103280009091A902029708F044C08091E800877FDE
:103290008093E8008091E80082FF37C09091F300AE
:1032A0008091F200029731F48091F100813011F0A9
:1032B000863021F48091F100809387028091E800AC
:1032C0008B778093E8000E94481C23C08091A40261
:1032D000813AF9F48091E800877F8093E80080913B
:1032E000A8029091A902892B61F468E08FE792E02F
:1032F00070E00E94571B8091E8008B778093E80074
:10330000089560E090E080E0F3CF8091A302811106
:10331000C1CF08958091A402813AD9F78091A80283
:103320009091A902892BA9F78091E800877F80936B
:10333000E8008091E80080FFFCCF80910E0180932F
:10334000F1008091E8008E77BCCF8091A402813299
:1033500001F78091A8029091A902892BD1F6809162
:10336000E800877F8093E8000E94481C8091A602B5
:1033700080930E010E94060808958091A402813274
:1033800041F68091E800877F8093E8000E94481C06
:103390008091A7028093880208958091A402813AC7
:1033A00009F0B7CF8091E800877F8093E800809193
:1033B000E80080FFFCCF80918802C1CF9FB7F894CE
:1033C00010927E029FBF9091A302943009F048C0F2
:1033D0002091E9002F703091EC00932F917030FD17
:1033E00090E8922B23E02093E9002091EB0020FF4E
:1033F00034C02091EE0027FF30C020917C022223B0
:1034000021F02091E80025FF28C010927C0226E0E0
:103410003091E80035FF14C08093F1008091E800FE
:1034200085FD27C08091E80080FFFCCF8091E800F7
:103430008E778093E8009F709093E90080E0089574
:103440003091A302343049F43091EB0035FD05C0D2
:10345000215041F481E080937C029F709093E900B9
:103460008FEF0895EFE9FFE03197F1F700C000001A
:10347000CFCF8FB7F89421E020937E028FBFDBCFB0
:1034800084B7877F84BF0FB6F894A89580916000B9
:10349000886180936000109260000FBE80E890E029
:1034A0000FB6F89480936100909361000FBE0E9464
:1034B0002B1708950E94981C0E94F51CE2EEF0E084
:1034C00080818460808378940E94731F089584E0D3
:1034D00091E00E94FA1408958091A302853091F43E
:1034E00080916C0280FF08C085EB92E09F938F93E0
:1034F0000E94F5020F900F908091A302853019F081
:103500000E94A61708950E947B170E9438178823EF
:1035100099F38091A102882379F30E94F21A0E9404
:103520000608EACF08959A014091AA025091AB0291
:103530000E949B1A0895492F55274330510521F1C8
:1035400068F44130510509F443C04230510509F493
:1035500044C090E080E050E040E026C04132510598
:1035600051F142325105A9F76330710590F7FB0123
:10357000EE0FFF1FEC56FE4F408151816F567E4F7C
:10358000FB01808190E010C099278130910581F086
:10359000009729F00297E9F6EFEDF2E002C0EBEFB9
:1035A000F2E0849190E0AF01F901518340830895E6
:1035B000EFEEF2E0F6CF6330710558F6660F771F35
:1035C000FB01E656FE4F4081518189E090E0ECCF4F
:1035D00082E190E043E553E0E7CF84E590E04FEFF0
:1035E00052E0E2CF80E189BD82E189BD09B400FEED
:1035F000FDCF8091D8008F7D8093D8008091E0002E
:1036000082608093E0008091E00081FDFCCF08950E
:10361000AF92BF92CF92DF92FF920F931F93CF93FF
:10362000DF936C01EB018A010E94671CF82E811167
:1036300023C00115110539F0F80180819181C81B63
:10364000D90BC80ED91EB12CA12C2097A9F08091BE
:10365000E80085FD22C08091E8008E778093E80025
:1036600001151105A1F0F80180819181A80EB91E04
:10367000B182A08285E0F82E8F2DDF91CF911F912E
:103680000F91FF90DF90CF90BF90AF9008950E9470
:10369000671C8823D1F2F82EEFCFF60181916F01DC
:1036A0008093F1002197FFEFAF1ABF0ACECFFC0144
:1036B0008091AA029091AB0286179707A0F061153E
:1036C000710529F49091E8009E779093E80090E0CE
:1036D0006115710551F4911108C08091E80082FFD5
:1036E00034C080E00895BC01F2CF8091A30288230A
:1036F000C1F18530C1F18091E80083FD30C0809137
:10370000E80082FDEACF8091E80080FFE1CF809160
:10371000F3002091F200382F6115710519F028305F
:10372000310558F091E02830310509F090E0209102
:10373000E8002E772093E800CBCF81918093F100B1
:10374000615071092F5F3F4FE7CF8091A30288231B
:1037500041F0853041F08091E80083FFBECF81E0E9
:10376000089582E0089583E00895FC018091AA0203
:103770009091AB0286179707A0F06115710529F4A7
:103780008091E8008E778093E80090E061157105E4
:1037900051F4911108C08091E80082FF35C080E0AB
:1037A0000895BC01F2CF8091A3028823C9F185302E
:1037B000C9F18091E80083FD31C08091E80082FD6D
:1037C000EACF8091E80080FFE1CF8091F300209163
:1037D000F200382F6115710519F02830310558F0C5
:1037E00091E02830310509F090E08091E8008E7773
:1037F0008093E800CBCF84918093F10031966150A3
:1038000071092F5F3F4FE6CF8091A302882341F0DB
:10381000853041F08091E80083FFBDCF81E00895BD
:1038200082E0089583E00895982F973028F08F70F4
:103830008093E90081E008959093E900242F762F8A
:1038400050E0981731F07091EC002091ED0050910C
:10385000F00021FD02C09F5FE8CF3091EB003E7F7A
:103860003093EB003091ED003D7F3093ED003091CF
:10387000EB0031603093EB007093EC002093ED008F
:103880005093F0002091EE0027FDE5CF80E00895F1
:103890008091A40287FF13C08091E80082FF06C0D8
:1038A0008091E8008B778093E80004C08091A302A8
:1038B0008111F2CF08958091A3028823D9F38091DA
:1038C000E80080FFF8CF8091E8008E77ECCF209160
:1038D000E4003091E50095E6A9012091EC00822FEB
:1038E000817020FF06C08091E80080FF06C080E064
:1038F00008952091E80022FD1AC08091A302882338
:1039000089F0853089F08091EB0085FD0FC0209112
:10391000E4003091E50042175307F9F29150E1F6C7
:1039200084E0089582E0089583E0089581E0089599
:103930000E94071D0E940F1DE0EEF0E08081816073
:103940008083E8EDF0E080818F77808319BCA7ED5C
:10395000B0E08C918E7F8C9380818F7E80831092DB
:10396000A20208950F931F93CF93DF930E94071D28
:103970000E940F1DC8EDD0E088818F7788838881F1
:103980008068888388818F7D888319BC1092A30208
:1039900010929F021092A1021092A00200EE10E07D
:1039A000F80180818B7F808388818160888342E0F9
:1039B00060E080E00E94141CE1EEF0E080818E7FE8
:1039C0008083E2EEF0E08081816080838081886086
:1039D0008083F80180818E7F8083888180618883E5
:1039E000DF91CF911F910F910895E8EDF0E0808174
:1039F0008F7E8083E7EDF0E080818160808384E0CA
:103A000082BF81E08093A2020E94B21C0895E8ED7B
:103A1000F0E080818E7F80831092E2000895109202
:103A2000DA001092E10008951F920F920FB60F92E4
:103A300011242F933F934F935F936F937F938F93B3
:103A40009F93AF93BF93EF93FF938091E10082FF29
:103A50000BC08091E20082FF07C08091E1008B7F64
:103A60008093E1000E94C9188091DA0080FF19C09C
:103A70008091D80080FF15C08091DA008E7F8093FE
:103A8000DA008091D90080FF96C080E189BD82E193
:103A900089BD09B400FEFDCF81E08093A3020E949E
:103AA00079188091E10080FF19C08091E20080FFC9
:103AB00015C08091E2008E7F8093E2008091E20049
:103AC00080618093E2008091D80080628093D8006A
:103AD00019BC85E08093A3020E94A5188091E100A3
:103AE00084FF2BC08091E20084FF27C080E189BD64
:103AF00082E189BD89B5982F917080FFFBCF8091BD
:103B0000D8008F7D8093D8008091E1008F7E8093D4
:103B1000E1008091E2008F7E8093E2008091E200DC
:103B200081608093E20080919F02882309F449C05C
:103B300084E08093A3020E94B6188091E10083FF85
:103B400029C08091E20083FF25C08091E100877F3A
:103B50008093E10082E08093A30210929F02809103
:103B6000E1008E7F8093E1008091E2008E7F809360
:103B7000E2008091E20080618093E20042E060E038
:103B800080E00E94141C8091F00088608093F00017
:103B90000E949A18FF91EF91BF91AF919F918F91E1
:103BA0007F916F915F914F913F912F910F900FBE39
:103BB0000F901F90189519BC1092A3020E948F18A5
:103BC00070CF8091E30087FD93E09093A302B3CF81
:103BD0001F920F920FB60F9211242F933F934F9382
:103BE0005F936F937F938F939F93AF93BF93CF9385
:103BF000DF93EF93FF93D091E900DF708091EC00A9
:103C0000C82FC17080FDC0E81092E9008091F000DB
:103C1000877F8093F00078940E942C1E1092E90018
:103C20008091F00088608093F000CD2BCF70C0931E
:103C3000E900FF91EF91DF91CF91BF91AF919F91FB
:103C40008F917F916F915F914F913F912F910F9045
:103C50000FBE0F901F901895AAE2B0E0E2E3FEE1DC
:103C60000C94AF1F84EA92E02091F100FC012193B3
:103C7000CF01F2E08C3A9F07B9F70E942419809196
:103C8000E80083FF1EC18091A4029091A5029A30A2
:103C900008F017C1E92FF0E0EA58FF4D0C949A1F85
:103CA000803899F0823809F00CC18091A8028F7099
:103CB000873008F006C18093E9008091EB0085FB16
:103CC000882780F91092E90006C08091A0029091A7
:103CD000A102911182609091E800977F9093E80093
:103CE0008093F1001092F1008091E8008E77E5C09A
:103CF000882309F4D3C0823009F0E3C08091A60282
:103D00008111D6C08091A8028F702FEF280F263026
:103D100008F0D7C08093E9002091EB0020FFC8C0D5
:103D2000933031F48091EB0080628093EB00C0C04F
:103D30009091EB0090619093EB0021E030E001C0A6
:103D4000220F8A95EAF72093EA001092EA00809108
:103D5000EB008860EACF8111B4C01091A6021F77F2
:103D60008091E3008078812B8093E3008091E800CC
:103D7000877F8093E8000E94481C8091E80080FFC4
:103D8000FCCF8091E30080688093E30082E0111112
:103D900083E08093A30295C08058823008F091C0E0
:103DA0008091A6029091A7028C3D23E09207A1F595
:103DB00083E08A838AE289834FB7F894DE01139601
:103DC00020E03EE051E2E32FF0E050935700E49111
:103DD00020FF03C0E295EF703F5FEF708E2F90E001
:103DE000EA30C0F0C7968D939D932F5F243159F729
:103DF0004FBF8091E800877F8093E8006AE270E01F
:103E0000CE0101960E94571B8091E8008B7780932A
:103E1000E80057C0C096E7CF6091A8027091A90250
:103E2000AE014F5F5F4F0E94931ABC01892B09F4CA
:103E300048C09091E800977F9093E80089819A812B
:103E40000E94B51BE1CF8038E1F58091E800877FC3
:103E50008093E80080919F028093F10045CF81110B
:103E600030C09091A602923060F58091E800877F83
:103E70008093E80090939F020E94481C80919F02CB
:103E8000882311F084E005C08091E30087FDFACF1C
:103E900081E08093A3020E940A1913C08091A602B8
:103EA000813079F481E0933009F080E08093A102C1
:103EB0001092E9008091E800877F8093E8000E94DB
:103EC000481C8091E80083FF0AC08091E800877F4A
:103ED0008093E8008091EB0080628093EB00AA96CB
:103EE000E3E00C94CB1FCF938091A3028823A1F031
:103EF000C091E900CF709091EC00892F817090FD06
:103F000080E8C82B1092E9008091E80083FD0E94B0
:103F10002C1ECF70C093E900CF910895991B79E0D2
:103F200004C0991F961708F0961B881F7A95C9F749
:103F300080950895EE0FFF1F0590F491E02D0994F0
:103F40002F923F924F925F926F927F928F929F92A9
:103F5000AF92BF92CF92DF92EF92FF920F931F9397
:103F6000CF93DF93CDB7DEB7CA1BDB0B0FB6F89448
:103F7000DEBF0FBECDBF09942A88398848885F8488
:103F80006E847D848C849B84AA84B984C884DF80F9
:103F9000EE80FD800C811B81AA81B981CE0FD11DDD
:103FA0000FB6F894DEBF0FBECDBFED010895FB0143
:103FB000DC0104C08D910190801921F441505040E2
:103FC000C8F7881B990B0895FB01DC0102C0019022
:103FD0000D9241505040D8F70895F999FECF92BD07
:103FE00081BDF89A992780B50895A8E1B0E042E034
:103FF00050E00C943120DC01A40FB51F415050401B
:1040000048F0CB01840F951F2E910E940C20415047
:104010005040D0F70895262FF999FECF92BD81BD6B
:10402000F89A019700B4021639F01FBA20BD0FB6F6
:10403000F894FA9AF99A0FBE08950396272F0E94D2
:104040000C200E940B20252F0E940C20242F0C9462
:104050000C200196272F0E940C200C940B20DC01D1
:10406000CB01FC01F999FECF06C0F2BDE1BDF89A83
:10407000319600B40D9241505040B8F70895F8942D
:10408000FFCF0B060B065B065B06C0063A063A0638
:104090003A06DC064D075C075C07CE134214D613C4
:1040A000A013A413DA13A813DE13EA13B4133B14FA
:1040B000B813EE13BC13F2131A14C013F613211421
:1040C000C613FC130414AC13E213B013E613CA13A3
:1040D000001410142A1439149A13D2134914D31447
:1040E000D914C214CD14DF14E514EB14501E781E3D
:1040F000611F781E611FAB1ECC1E611F231F2F1F67
:10410000300250022E1864185D183118561801E25A
:1041100000E900EA00B500B600B700CD008301CC8D
:10412000008A019201940121022302240225022621
:104130000227022A02B300B4006F0070009F01CB77
:10414000019F02A002818283E200E900EA00B5003B
:10415000B600B700CD008301CC008A019201940122
:104160002102230224022502260227022A02B3008A
:10417000B4006F0070009F01CB019F02A0028182FA
:1041800083F1F03067F4F5F6F7949634979095350F
:1041900036446D15E7037A03650311032A034303CD
:00000001FF
